{
  "contractName": "Exchange",
  "abi": [
    {
      "inputs": [
        {
          "internalType": "address",
          "name": "SushiSwapFactoryAddress",
          "type": "address"
        },
        {
          "internalType": "address",
          "name": "SushiSwapRouterAddress",
          "type": "address"
        },
        {
          "internalType": "address",
          "name": "Token1Address",
          "type": "address"
        },
        {
          "internalType": "address",
          "name": "Token2Address",
          "type": "address"
        }
      ],
      "stateMutability": "nonpayable",
      "type": "constructor"
    },
    {
      "anonymous": false,
      "inputs": [
        {
          "indexed": true,
          "internalType": "address",
          "name": "previousOwner",
          "type": "address"
        },
        {
          "indexed": true,
          "internalType": "address",
          "name": "newOwner",
          "type": "address"
        }
      ],
      "name": "OwnershipTransferred",
      "type": "event"
    },
    {
      "inputs": [],
      "name": "Token1",
      "outputs": [
        {
          "internalType": "address",
          "name": "",
          "type": "address"
        }
      ],
      "stateMutability": "view",
      "type": "function"
    },
    {
      "inputs": [],
      "name": "Token2",
      "outputs": [
        {
          "internalType": "address",
          "name": "",
          "type": "address"
        }
      ],
      "stateMutability": "view",
      "type": "function"
    },
    {
      "inputs": [],
      "name": "claimOwnership",
      "outputs": [],
      "stateMutability": "nonpayable",
      "type": "function"
    },
    {
      "inputs": [],
      "name": "owner",
      "outputs": [
        {
          "internalType": "address",
          "name": "",
          "type": "address"
        }
      ],
      "stateMutability": "view",
      "type": "function"
    },
    {
      "inputs": [
        {
          "internalType": "address",
          "name": "newOwner",
          "type": "address"
        }
      ],
      "name": "transferOwnership",
      "outputs": [],
      "stateMutability": "nonpayable",
      "type": "function"
    },
    {
      "inputs": [],
      "name": "initialize",
      "outputs": [],
      "stateMutability": "nonpayable",
      "type": "function"
    },
    {
      "inputs": [
        {
          "internalType": "uint256",
          "name": "Token1Value",
          "type": "uint256"
        },
        {
          "internalType": "uint256",
          "name": "Token2Value",
          "type": "uint256"
        }
      ],
      "name": "addLiquidity",
      "outputs": [],
      "stateMutability": "nonpayable",
      "type": "function"
    },
    {
      "inputs": [
        {
          "internalType": "uint256",
          "name": "valueToken1",
          "type": "uint256"
        }
      ],
      "name": "SwapToken1",
      "outputs": [],
      "stateMutability": "nonpayable",
      "type": "function"
    },
    {
      "inputs": [
        {
          "internalType": "uint256",
          "name": "valueToken2",
          "type": "uint256"
        }
      ],
      "name": "SwapToken2",
      "outputs": [],
      "stateMutability": "nonpayable",
      "type": "function"
    },
    {
      "inputs": [],
      "name": "withdrawFunds",
      "outputs": [],
      "stateMutability": "nonpayable",
      "type": "function"
    }
  ],
  "bytecode": "0x608060405260008054600160a060020a0319163317905534801561002257600080fd5b506040516118a53803806118a58339818101604052608081101561004557600080fd5b50805160208083015160408085015160609095015160048054600160a060020a03808916600160a060020a0319928316811784556005805483871690851617905560028054838b169085161790556003805492881692909316821790925584517f095ea7b30000000000000000000000000000000000000000000000000000000081529283015260001960248301529251959693959394919363095ea7b3926044808401939192918290030181600087803b15801561010357600080fd5b505af1158015610117573d6000803e3d6000fd5b505050506040513d602081101561012d57600080fd5b5050604080517f095ea7b3000000000000000000000000000000000000000000000000000000008152600160a060020a038581166004830152600019602483015291519183169163095ea7b3916044808201926020929091908290030181600087803b15801561019c57600080fd5b505af11580156101b0573d6000803e3d6000fd5b505050506040513d60208110156101c657600080fd5b5050505050506116ca806101db6000396000f3fe608060405234801561001057600080fd5b50600436106100bb576000357c0100000000000000000000000000000000000000000000000000000000900480638da5cb5b116100835780638da5cb5b1461011457806396a8797e146101385780639cd441da14610140578063a4baecc914610163578063f2fde38b1461016b576100bb565b806324600fc3146100c05780634e71e0c8146100ca578063563a6d1d146100d25780635cd16f9c146100ef5780638129fc1c1461010c575b600080fd5b6100c8610191565b005b6100c8610408565b6100c8600480360360208110156100e857600080fd5b5035610495565b6100c86004803603602081101561010557600080fd5b5035610895565b6100c8610c61565b61011c610d68565b60408051600160a060020a039092168252519081900360200190f35b61011c610d77565b6100c86004803603604081101561015657600080fd5b5080359060200135610d86565b61011c611296565b6100c86004803603602081101561018157600080fd5b5035600160a060020a03166112a5565b600054600160a060020a031633146101f3576040805160e560020a62461bcd02815260206004820152600a60248201527f4f776e6572206f6e6c7900000000000000000000000000000000000000000000604482015290519081900360640190fd5b600480546040805160e060020a6370a08231028152309381019390935251600092600160a060020a03909216916370a08231916024808301926020929190829003018186803b15801561024557600080fd5b505afa158015610259573d6000803e3d6000fd5b505050506040513d602081101561026f57600080fd5b505160048054600080546040805160e060020a63a9059cbb028152600160a060020a039283169581019590955260248501869052519495509091169263a9059cbb926044808201936020939283900390910190829087803b1580156102d357600080fd5b505af11580156102e7573d6000803e3d6000fd5b505050506040513d60208110156102fd57600080fd5b50506005546040805160e060020a6370a082310281523060048201529051600092600160a060020a0316916370a08231916024808301926020929190829003018186803b15801561034d57600080fd5b505afa158015610361573d6000803e3d6000fd5b505050506040513d602081101561037757600080fd5b5051600554600080546040805160e060020a63a9059cbb028152600160a060020a03928316600482015260248101869052905194955092169263a9059cbb926044808201936020939283900390910190829087803b1580156103d857600080fd5b505af11580156103ec573d6000803e3d6000fd5b505050506040513d602081101561040257600080fd5b50505050565b600154600160a060020a0316331461041f57600080fd5b6001805473ffffffffffffffffffffffffffffffffffffffff19169055600080546040513392600160a060020a03909216917f8be0079c531659141344cd1fd0a4f28419497f9722a3daafe3b4186f6b6457e091a36000805473ffffffffffffffffffffffffffffffffffffffff191633179055565b806104ea576040805160e560020a62461bcd02815260206004820152600d60248201527f494e56414c494420494e50555400000000000000000000000000000000000000604482015290519081900360640190fd5b6005546040805160e060020a6323b872dd028152336004820152306024820152604481018490529051600160a060020a03909216916323b872dd916064808201926020929091908290030181600087803b15801561054757600080fd5b505af115801561055b573d6000803e3d6000fd5b505050506040513d602081101561057157600080fd5b506000905061057f82611336565b60408051600280825260608083018452939450909160208301908036833750506005548251929350600160a060020a0316918391506000906105bd57fe5b600160a060020a0392831660209182029290920101526004548251911690829060019081106105e857fe5b600160a060020a039283166020918202929092018101919091526003546040517f38ed173900000000000000000000000000000000000000000000000000000000815260048101878152602482018790523060648301819052426084840181905260a060448501908152885160a4860152885195909716966338ed1739968b968b968b96939260c490910191878201910280838360005b8381101561069757818101518382015260200161067f565b505050509050019650505050505050600060405180830381600087803b1580156106c057600080fd5b505af11580156106d4573d6000803e3d6000fd5b505050506040513d6000823e601f3d908101601f1916820160405260208110156106fd57600080fd5b810190808051604051939291908464010000000082111561071d57600080fd5b90830190602082018581111561073257600080fd5b825186602082028301116401000000008211171561074f57600080fd5b82525081516020918201928201910280838360005b8381101561077c578181015183820152602001610764565b505050509190910160408181526004805460e060020a6370a082310284523091840191909152905160009750600160a060020a0390911695506370a08231945060248083019450602093509091829003018186803b1580156107dd57600080fd5b505afa1580156107f1573d6000803e3d6000fd5b505050506040513d602081101561080757600080fd5b5051600480546040805160e060020a63a9059cbb02815233938101939093526024830184905251929350600160a060020a03169163a9059cbb916044808201926020929091908290030181600087803b15801561086357600080fd5b505af1158015610877573d6000803e3d6000fd5b505050506040513d602081101561088d57600080fd5b505050505050565b806108ea576040805160e560020a62461bcd02815260206004820152600d60248201527f494e56414c494420494e50555400000000000000000000000000000000000000604482015290519081900360640190fd5b600480546040805160e060020a6323b872dd02815233938101939093523060248401526044830184905251600160a060020a03909116916323b872dd9160648083019260209291908290030181600087803b15801561094857600080fd5b505af115801561095c573d6000803e3d6000fd5b505050506040513d602081101561097257600080fd5b506000905061098082611546565b60408051600280825260608083018452939450909160208301908036833750506004548251929350600160a060020a0316918391506000906109be57fe5b600160a060020a0392831660209182029290920101526005548251911690829060019081106109e957fe5b600160a060020a039283166020918202929092018101919091526003546040517f38ed173900000000000000000000000000000000000000000000000000000000815260048101878152602482018790523060648301819052426084840181905260a060448501908152885160a4860152885195909716966338ed1739968b968b968b96939260c490910191878201910280838360005b83811015610a98578181015183820152602001610a80565b505050509050019650505050505050600060405180830381600087803b158015610ac157600080fd5b505af1158015610ad5573d6000803e3d6000fd5b505050506040513d6000823e601f3d908101601f191682016040526020811015610afe57600080fd5b8101908080516040519392919084640100000000821115610b1e57600080fd5b908301906020820185811115610b3357600080fd5b8251866020820283011164010000000082111715610b5057600080fd5b82525081516020918201928201910280838360005b83811015610b7d578181015183820152602001610b65565b5050505091909101604081815260055460e060020a6370a08231028352306004840152905160009750600160a060020a0390911695506370a08231945060248083019450602093509091829003018186803b158015610bdb57600080fd5b505afa158015610bef573d6000803e3d6000fd5b505050506040513d6020811015610c0557600080fd5b50516005546040805160e060020a63a9059cbb028152336004820152602481018490529051929350600160a060020a039091169163a9059cbb916044808201926020929091908290030181600087803b15801561086357600080fd5b600054600160a060020a03163314610cc3576040805160e560020a62461bcd02815260206004820152600a60248201527f4f776e6572206f6e6c7900000000000000000000000000000000000000000000604482015290519081900360640190fd5b60025460048054600554604080517fc9c65396000000000000000000000000000000000000000000000000000000008152600160a060020a039384169481019490945290821660248401525192169163c9c65396916044808201926020929091908290030181600087803b158015610d3a57600080fd5b505af1158015610d4e573d6000803e3d6000fd5b505050506040513d6020811015610d6457600080fd5b5050565b600054600160a060020a031681565b600454600160a060020a031681565b60025460048054600554604080517fe6a43905000000000000000000000000000000000000000000000000000000008152600160a060020a0393841694810194909452908216602484015251600093919091169163e6a43905916044808301926020929190829003018186803b158015610dff57600080fd5b505afa158015610e13573d6000803e3d6000fd5b505050506040513d6020811015610e2957600080fd5b50519050600160a060020a038116610e8b576040805160e560020a62461bcd02815260206004820152601760248201527f50616972204973204e6f7420496e697469616c697a6564000000000000000000604482015290519081900360640190fd5b600480546040805160e060020a6370a08231028152309381019390935251600092600160a060020a03909216916370a08231916024808301926020929190829003018186803b158015610edd57600080fd5b505afa158015610ef1573d6000803e3d6000fd5b505050506040513d6020811015610f0757600080fd5b50516005546040805160e060020a6370a082310281523060048201529051929350600092600160a060020a03909216916370a0823191602480820192602092909190829003018186803b158015610f5d57600080fd5b505afa158015610f71573d6000803e3d6000fd5b505050506040513d6020811015610f8757600080fd5b5051600480546040805160e060020a6323b872dd02815233938101939093523060248401526044830189905251929350600160a060020a0316916323b872dd916064808201926020929091908290030181600087803b158015610fe957600080fd5b505af1158015610ffd573d6000803e3d6000fd5b505050506040513d602081101561101357600080fd5b50506005546040805160e060020a6323b872dd028152336004820152306024820152604481018790529051600160a060020a03909216916323b872dd916064808201926020929091908290030181600087803b15801561107257600080fd5b505af1158015611086573d6000803e3d6000fd5b505050506040513d602081101561109c57600080fd5b5050600480546040805160e060020a6370a08231028152309381019390935251600092600160a060020a03909216916370a08231916024808301926020929190829003018186803b1580156110f057600080fd5b505afa158015611104573d6000803e3d6000fd5b505050506040513d602081101561111a57600080fd5b50516005546040805160e060020a6370a082310281523060048201529051929350600092600160a060020a03909216916370a0823191602480820192602092909190829003018186803b15801561117057600080fd5b505afa158015611184573d6000803e3d6000fd5b505050506040513d602081101561119a57600080fd5b5051905060006111aa83866115b1565b905060006111b883866115b1565b60035460048054600554604080517fe8e33700000000000000000000000000000000000000000000000000000000008152600160a060020a03938416948101949094529082166024840152604483018790526064830185905260006084840181905260a484018190523360c48501524260e4850152905194955092169263e8e337009261010480840193606093929083900390910190829087803b15801561125f57600080fd5b505af1158015611273573d6000803e3d6000fd5b505050506040513d606081101561128957600080fd5b5050505050505050505050565b600554600160a060020a031681565b600054600160a060020a03163314611307576040805160e560020a62461bcd02815260206004820152600a60248201527f4f776e6572206f6e6c7900000000000000000000000000000000000000000000604482015290519081900360640190fd5b6001805473ffffffffffffffffffffffffffffffffffffffff1916600160a060020a0392909216919091179055565b604080516002808252606080830184526000939092919060208301908036833750506005548251929350600160a060020a03169183915060009061137657fe5b600160a060020a0392831660209182029290920101526004548251911690829060019081106113a157fe5b600160a060020a03928316602091820292909201810191909152600354604080517fd06ca61f0000000000000000000000000000000000000000000000000000000081526004810188815260248201928352865160448301528651606096949094169463d06ca61f948a9489949092606490910191858201910280838360005b83811015611439578181015183820152602001611421565b50505050905001935050505060006040518083038186803b15801561145d57600080fd5b505afa158015611471573d6000803e3d6000fd5b505050506040513d6000823e601f3d908101601f19168201604052602081101561149a57600080fd5b81019080805160405193929190846401000000008211156114ba57600080fd5b9083019060208201858111156114cf57600080fd5b82518660208202830111640100000000821117156114ec57600080fd5b82525081516020918201928201910280838360005b83811015611519578181015183820152602001611501565b5050505090500160405250505090508060018151811061153557fe5b602002602001015192505050919050565b604080516002808252606080830184526000939092919060208301908036833750506004548251929350600160a060020a03169183915060009061158657fe5b600160a060020a0392831660209182029290920101526005548251911690829060019081106113a157fe5b60006115f383836040518060400160405280601e81526020017f536166654d6174683a207375627472616374696f6e206f766572666c6f7700008152506115fa565b9392505050565b6000818484111561168c5760405160e560020a62461bcd0281526004018080602001828103825283818151815260200191508051906020019080838360005b83811015611651578181015183820152602001611639565b50505050905090810190601f16801561167e5780820380516001836020036101000a031916815260200191505b509250505060405180910390fd5b50505090039056fea2646970667358221220bd7c4c3b609718b99ba4fc78ee24d2a576b0e49dcdfccb281e1bea3bac4ba1b164736f6c63430007040033",
  "immutableReferences": {},
  "source": "// SPDX-License-Identifier: J-J-J-JENGA!!!\r\npragma solidity ^0.7.4;\r\n\r\nimport \"./interfaces/IUniswapV2Factory.sol\";\r\nimport \"./interfaces/IUniswapV2Router02.sol\";\r\nimport \"./interfaces/IERC20.sol\";\r\nimport \"./Utils/Owned.sol\";\r\nimport \"./libraries/SafeMath.sol\";\r\n\r\n\r\ncontract Exchange is Owned {\r\n\r\nusing SafeMath for uint256;\r\n\r\nIUniswapV2Factory private  SushiSwapFactory;\r\nIUniswapV2Router02 private SushiSwapRouter;\r\naddress public Token1;\r\naddress public Token2;\r\n\r\n// BSC TESTNET FACTORY : 0xc35DADB65012eC5796536bD9864eD8773aBc74C4\r\n// BSC TESTNET ROUTER : 0x1b02dA8Cb0d097eB8D57A175b88c7D8b47997506\r\n\r\n    constructor(\r\n    address SushiSwapFactoryAddress , \r\n    address SushiSwapRouterAddress,\r\n    address Token1Address,\r\n    address Token2Address\r\n    )\r\n    {\r\n        Token1 = Token1Address;\r\n        Token2 = Token2Address;\r\n        SushiSwapFactory = IUniswapV2Factory(SushiSwapFactoryAddress);\r\n        SushiSwapRouter = IUniswapV2Router02(SushiSwapRouterAddress);\r\n        IERC20(Token1Address).approve(SushiSwapRouterAddress , uint(-1));\r\n        IERC20(Token2Address).approve(SushiSwapRouterAddress , uint(-1));\r\n    }\r\n\r\n\r\n    function initialize () external ownerOnly{\r\n        SushiSwapFactory.createPair(Token1 , Token2);\r\n    }\r\n\r\n    function addLiquidity(uint256 Token1Value, uint256 Token2Value) public {\r\n        address pair = SushiSwapFactory.getPair(Token1 , Token2);\r\n        require(pair != address(0) , \"Pair Is Not Initialized\");\r\n        uint256 initialBalanceToken1 = IERC20(Token1).balanceOf(address(this));\r\n        uint256 initialBalanceToken2 = IERC20(Token2).balanceOf(address(this));\r\n        IERC20(Token1).transferFrom(msg.sender , address(this) , Token1Value);\r\n        IERC20(Token2).transferFrom(msg.sender , address(this) , Token2Value);\r\n        uint256 CurrentBalance1 = IERC20(Token1).balanceOf(address(this));\r\n        uint256 CurrentBalance2 = IERC20(Token2).balanceOf(address(this));\r\n        uint256 balanceToken1 = CurrentBalance1.sub(initialBalanceToken1);\r\n        uint256 balanceToken2 = CurrentBalance2.sub(initialBalanceToken2);  \r\n        SushiSwapRouter.addLiquidity(\r\n            Token1,\r\n            Token2, \r\n            balanceToken1,\r\n            balanceToken2,\r\n            0,\r\n            0,\r\n            msg.sender,\r\n            block.timestamp\r\n        );\r\n    }\r\n\r\n    function getAmountsOutToken2(uint256 Token1In) internal view returns(uint256) {\r\n        address[] memory path = new address[](2);\r\n        path[0] = Token1;\r\n        path[1] = Token2;\r\n        (uint256[] memory amounts) = SushiSwapRouter.getAmountsOut(Token1In , path);\r\n        return amounts[1];\r\n    }\r\n    \r\n    function getAmountsOutToken1(uint256 Token2In) internal view returns(uint256)\r\n    {\r\n        address[] memory path = new address[](2);\r\n        path[0] = Token2;\r\n        path[1] = Token1;\r\n        (uint256[] memory amounts) = SushiSwapRouter.getAmountsOut(Token2In , path);\r\n        return amounts[1];\r\n    }\r\n    \r\n    function SwapToken1(uint256 valueToken1) public{\r\n        require(valueToken1 != uint256(0) , \"INVALID INPUT\");\r\n        IERC20(Token1).transferFrom(msg.sender , address(this) , valueToken1);\r\n        uint256 ExpectedToken2Amount = getAmountsOutToken2(valueToken1);\r\n        address[] memory path = new address[](2);\r\n        path[0] = Token1;\r\n        path[1] = Token2;\r\n        SushiSwapRouter.swapExactTokensForTokens(valueToken1 , ExpectedToken2Amount , path , address(this) , block.timestamp);\r\n        uint256 Balance = IERC20(Token2).balanceOf(address(this));\r\n        IERC20(Token2).transfer(msg.sender , Balance);\r\n    }\r\n    \r\n    function SwapToken2(uint256 valueToken2) public{\r\n        require(valueToken2 != uint256(0) , \"INVALID INPUT\");\r\n        IERC20(Token2).transferFrom(msg.sender , address(this) , valueToken2);\r\n        uint256 ExpectedToken1Amount = getAmountsOutToken1(valueToken2);\r\n        address[] memory path = new address[](2);\r\n        path[0] = Token2; \r\n        path[1] = Token1;\r\n        SushiSwapRouter.swapExactTokensForTokens(valueToken2 , ExpectedToken1Amount , path , address(this) , block.timestamp);\r\n        uint256 Balance = IERC20(Token1).balanceOf(address(this));\r\n        IERC20(Token1).transfer(msg.sender , Balance);\r\n    }\r\n\r\n\r\n    // function SwapToken1ForToken2(uint256 Token1Value) public {\r\n    //     require(Token1Value != uint256(0) , \"INVALID INPUT\");\r\n    //     uint256 initialBalance = IERC20(Token1).balanceOf(address(this));\r\n    //     IERC20(Token1).transferFrom(msg.sender , address(this) , Token1Value);\r\n    //     uint256 afterTransferBalance = IERC20(Token1).balanceOf(address(this));\r\n    //     uint256 Token1Balance = afterTransferBalance.sub(initialBalance);\r\n    //     uint256 initialBalanceToken2 = IERC20(Token2).balanceOf(address(this));\r\n    //     uint256 ExpectedToken2Amount = getAmountsOutToken2(Token1Balance);\r\n    //     address[] memory path = new address[](2);\r\n    //     path[0] = Token1;\r\n    //     path[1] = Token2;\r\n    //     SushiSwapRouter.swapExactTokensForTokens(Token1Balance , ExpectedToken2Amount , path , address(this) , block.timestamp);\r\n    //     uint256 CurrentBalance= IERC20(Token2).balanceOf(address(this));\r\n    //     uint256 SwappedTokens = CurrentBalance.sub(initialBalanceToken2);\r\n    //     IERC20(Token2).transfer(msg.sender, SwappedTokens);\r\n    // }\r\n\r\n    // function SwapToken2ForToken1(uint256 Token2Value) public {\r\n    //     require(Token2Value != uint256(0) , \"INVALID INPUT\");\r\n    //     uint256 initialBalance = IERC20(Token2).balanceOf(address(this));\r\n    //     IERC20(Token2).transferFrom(msg.sender , address(this) , Token2Value);\r\n    //     uint256 afterTransferBalance = IERC20(Token2).balanceOf(address(this));\r\n    //     uint256 Token2Balance = afterTransferBalance.sub(initialBalance);\r\n    //     uint256 initialBalanceToken1 = IERC20(Token1).balanceOf(address(this));\r\n    //     uint256 ExpectedToken1Amount = getAmountsOutToken1(Token2Balance);\r\n    //     address[] memory path = new address[](2);\r\n    //     path[0] = Token2;\r\n    //     path[1] = Token1;\r\n    //     SushiSwapRouter.swapExactTokensForTokens(Token2Balance , ExpectedToken1Amount , path , address(this) , block.timestamp);\r\n    //     uint256 CurrentBalance= IERC20(Token1).balanceOf(address(this));\r\n    //     uint256 SwappedTokens = CurrentBalance.sub(initialBalanceToken1);\r\n    //     IERC20(Token1).transfer(msg.sender, SwappedTokens);\r\n    // }\r\n\r\n    function withdrawFunds() external ownerOnly{\r\n        uint256 balanceToken1 = IERC20(Token1).balanceOf(address(this));\r\n        IERC20(Token1).transfer(owner , balanceToken1);\r\n        uint256 balanceToken2 = IERC20(Token2).balanceOf(address(this));\r\n        IERC20(Token2).transfer(owner , balanceToken2);\r\n    }\r\n\r\n}\r\n",
  "sourcePath": "C:/Study/Internship/BloqueLabs/Swap/contracts/contracts/ExchangeTokens.sol",
  "compiler": {
    "name": "solc",
    "version": "0.7.4+commit.3f05b770.Linux.g++"
  },
  "schemaVersion": "3.4.1",
  "updatedAt": "2021-09-24T13:09:17.225Z",
  "devdoc": {
    "kind": "dev",
    "methods": {},
    "version": 1
  },
  "userdoc": {
    "kind": "user",
    "methods": {},
    "version": 1
  }
}